{
  "contractName": "BridgeManager",
  "abi": [
    {
      "inputs": [
        {
          "internalType": "address",
          "name": "_wallet",
          "type": "address"
        }
      ],
      "payable": false,
      "stateMutability": "nonpayable",
      "type": "constructor"
    },
    {
      "anonymous": false,
      "inputs": [
        {
          "indexed": true,
          "internalType": "address",
          "name": "token",
          "type": "address"
        },
        {
          "indexed": true,
          "internalType": "address",
          "name": "sender",
          "type": "address"
        },
        {
          "indexed": false,
          "internalType": "uint256",
          "name": "amount",
          "type": "uint256"
        },
        {
          "indexed": false,
          "internalType": "address",
          "name": "recipient",
          "type": "address"
        }
      ],
      "name": "Burned",
      "type": "event"
    },
    {
      "anonymous": false,
      "inputs": [
        {
          "indexed": true,
          "internalType": "address",
          "name": "tokenAddr",
          "type": "address"
        },
        {
          "indexed": true,
          "internalType": "address",
          "name": "sender",
          "type": "address"
        },
        {
          "indexed": false,
          "internalType": "uint256",
          "name": "amount",
          "type": "uint256"
        },
        {
          "indexed": false,
          "internalType": "address",
          "name": "recipient",
          "type": "address"
        }
      ],
      "name": "Locked",
      "type": "event"
    },
    {
      "anonymous": false,
      "inputs": [
        {
          "indexed": false,
          "internalType": "address",
          "name": "oneToken",
          "type": "address"
        },
        {
          "indexed": false,
          "internalType": "uint256",
          "name": "amount",
          "type": "uint256"
        },
        {
          "indexed": false,
          "internalType": "address",
          "name": "recipient",
          "type": "address"
        },
        {
          "indexed": false,
          "internalType": "bytes32",
          "name": "receiptId",
          "type": "bytes32"
        }
      ],
      "name": "Minted",
      "type": "event"
    },
    {
      "anonymous": false,
      "inputs": [
        {
          "indexed": false,
          "internalType": "address",
          "name": "tokenAddr",
          "type": "address"
        },
        {
          "indexed": false,
          "internalType": "uint256",
          "name": "amount",
          "type": "uint256"
        },
        {
          "indexed": false,
          "internalType": "address",
          "name": "recipient",
          "type": "address"
        },
        {
          "indexed": false,
          "internalType": "bytes32",
          "name": "receiptId",
          "type": "bytes32"
        }
      ],
      "name": "Unlocked",
      "type": "event"
    },
    {
      "constant": true,
      "inputs": [],
      "name": "ZERO_ADDRESS",
      "outputs": [
        {
          "internalType": "contract IERC20",
          "name": "",
          "type": "address"
        }
      ],
      "payable": false,
      "stateMutability": "view",
      "type": "function"
    },
    {
      "constant": true,
      "inputs": [
        {
          "internalType": "address",
          "name": "",
          "type": "address"
        }
      ],
      "name": "mappings",
      "outputs": [
        {
          "internalType": "address",
          "name": "",
          "type": "address"
        }
      ],
      "payable": false,
      "stateMutability": "view",
      "type": "function"
    },
    {
      "constant": true,
      "inputs": [
        {
          "internalType": "bytes32",
          "name": "",
          "type": "bytes32"
        }
      ],
      "name": "usedEvents_",
      "outputs": [
        {
          "internalType": "bool",
          "name": "",
          "type": "bool"
        }
      ],
      "payable": false,
      "stateMutability": "view",
      "type": "function"
    },
    {
      "constant": true,
      "inputs": [],
      "name": "wallet",
      "outputs": [
        {
          "internalType": "address",
          "name": "",
          "type": "address"
        }
      ],
      "payable": false,
      "stateMutability": "view",
      "type": "function"
    },
    {
      "constant": false,
      "inputs": [
        {
          "internalType": "address",
          "name": "tokenManager",
          "type": "address"
        },
        {
          "internalType": "address",
          "name": "tokenAddr",
          "type": "address"
        },
        {
          "internalType": "string",
          "name": "name",
          "type": "string"
        },
        {
          "internalType": "string",
          "name": "symbol",
          "type": "string"
        },
        {
          "internalType": "uint8",
          "name": "decimals",
          "type": "uint8"
        }
      ],
      "name": "addToken",
      "outputs": [],
      "payable": false,
      "stateMutability": "nonpayable",
      "type": "function"
    },
    {
      "constant": false,
      "inputs": [
        {
          "internalType": "address",
          "name": "tokenManager",
          "type": "address"
        },
        {
          "internalType": "address",
          "name": "tokenAddr",
          "type": "address"
        }
      ],
      "name": "removeToken",
      "outputs": [],
      "payable": false,
      "stateMutability": "nonpayable",
      "type": "function"
    },
    {
      "constant": false,
      "inputs": [
        {
          "internalType": "address",
          "name": "tokenAddr",
          "type": "address"
        },
        {
          "internalType": "uint256",
          "name": "amount",
          "type": "uint256"
        },
        {
          "internalType": "address",
          "name": "recipient",
          "type": "address"
        }
      ],
      "name": "lockToken",
      "outputs": [],
      "payable": false,
      "stateMutability": "nonpayable",
      "type": "function"
    },
    {
      "constant": false,
      "inputs": [
        {
          "internalType": "address",
          "name": "tokenAddr",
          "type": "address"
        },
        {
          "internalType": "uint256",
          "name": "amount",
          "type": "uint256"
        },
        {
          "internalType": "address",
          "name": "recipient",
          "type": "address"
        },
        {
          "internalType": "bytes32",
          "name": "receiptId",
          "type": "bytes32"
        }
      ],
      "name": "unlockToken",
      "outputs": [],
      "payable": false,
      "stateMutability": "nonpayable",
      "type": "function"
    },
    {
      "constant": false,
      "inputs": [
        {
          "internalType": "address",
          "name": "tokenAddr",
          "type": "address"
        },
        {
          "internalType": "uint256",
          "name": "amount",
          "type": "uint256"
        },
        {
          "internalType": "address",
          "name": "recipient",
          "type": "address"
        }
      ],
      "name": "burnToken",
      "outputs": [],
      "payable": false,
      "stateMutability": "nonpayable",
      "type": "function"
    },
    {
      "constant": false,
      "inputs": [
        {
          "internalType": "address",
          "name": "tokenAddr",
          "type": "address"
        },
        {
          "internalType": "uint256",
          "name": "amount",
          "type": "uint256"
        },
        {
          "internalType": "address",
          "name": "recipient",
          "type": "address"
        },
        {
          "internalType": "bytes32",
          "name": "receiptId",
          "type": "bytes32"
        }
      ],
      "name": "mintToken",
      "outputs": [],
      "payable": false,
      "stateMutability": "nonpayable",
      "type": "function"
    },
    {
      "constant": false,
      "inputs": [
        {
          "internalType": "uint256",
          "name": "amount",
          "type": "uint256"
        },
        {
          "internalType": "address",
          "name": "recipient",
          "type": "address"
        }
      ],
      "name": "lockNative",
      "outputs": [],
      "payable": true,
      "stateMutability": "payable",
      "type": "function"
    },
    {
      "constant": false,
      "inputs": [
        {
          "internalType": "uint256",
          "name": "amount",
          "type": "uint256"
        },
        {
          "internalType": "address payable",
          "name": "recipient",
          "type": "address"
        },
        {
          "internalType": "bytes32",
          "name": "receiptId",
          "type": "bytes32"
        }
      ],
      "name": "unlockNative",
      "outputs": [],
      "payable": false,
      "stateMutability": "nonpayable",
      "type": "function"
    }
  ],
  "bytecode": "0x608060405234801561001057600080fd5b506040516113b93803806113b98339818101604052602081101561003357600080fd5b5051600280546001600160a01b0319166001600160a01b03909216919091179055611356806100636000396000f3fe6080604052600436106100a75760003560e01c80639735b0e3116100645780639735b0e3146101d5578063a0e3d1a014610210578063bccc9fcf14610253578063e8162bda14610291578063f633be1e146103e9578063fe7f61ea14610430576100a7565b806309eb2728146100ac5780630a49a4c6146100f1578063394f616c1461011d578063411026191461015c578063521eb273146101ab578063538ba4f9146101c0575b600080fd5b3480156100b857600080fd5b506100ef600480360360608110156100cf57600080fd5b506001600160a01b03813581169160208101359160409091013516610477565b005b6100ef6004803603604081101561010757600080fd5b50803590602001356001600160a01b0316610682565b34801561012957600080fd5b506100ef6004803603606081101561014057600080fd5b508035906001600160a01b03602082013516906040013561077a565b34801561016857600080fd5b5061018f6004803603602081101561017f57600080fd5b50356001600160a01b03166108dc565b604080516001600160a01b039092168252519081900360200190f35b3480156101b757600080fd5b5061018f6108f7565b3480156101cc57600080fd5b5061018f610906565b3480156101e157600080fd5b506100ef600480360360408110156101f857600080fd5b506001600160a01b038135811691602001351661091e565b34801561021c57600080fd5b506100ef6004803603606081101561023357600080fd5b506001600160a01b03813581169160208101359160409091013516610989565b34801561025f57600080fd5b5061027d6004803603602081101561027657600080fd5b5035610a3e565b604080519115158252519081900360200190f35b34801561029d57600080fd5b506100ef600480360360a08110156102b457600080fd5b6001600160a01b0382358116926020810135909116918101906060810160408201356401000000008111156102e857600080fd5b8201836020820111156102fa57600080fd5b8035906020019184600183028401116401000000008311171561031c57600080fd5b91908080601f016020809104026020016040519081016040528093929190818152602001838380828437600092019190915250929594936020810193503591505064010000000081111561036f57600080fd5b82018360208201111561038157600080fd5b803590602001918460018302840111640100000000831117156103a357600080fd5b91908080601f0160208091040260200160405190810160405280939291908181526020018383808284376000920191909152509295505050903560ff169150610a539050565b3480156103f557600080fd5b506100ef6004803603608081101561040c57600080fd5b506001600160a01b0381358116916020810135916040820135169060600135610bef565b34801561043c57600080fd5b506100ef6004803603608081101561045357600080fd5b506001600160a01b0381358116916020810135916040820135169060600135610d89565b6001600160a01b0381166104bc5760405162461bcd60e51b81526004018080602001828103825260298152602001806112786029913960400191505060405180910390fd5b60008211610511576040805162461bcd60e51b815260206004820152601f60248201527f4272696467654d616e616765722f7a65726f20746f6b656e206c6f636b656400604482015290519081900360640190fd5b604080516370a0823160e01b8152306004820152905184916000916001600160a01b038416916370a08231916024808301926020929190829003018186803b15801561055c57600080fd5b505afa158015610570573d6000803e3d6000fd5b505050506040513d602081101561058657600080fd5b505190506105a56001600160a01b03831633308763ffffffff610ec216565b604080516370a0823160e01b815230600482015290516000916001600160a01b038516916370a0823191602480820192602092909190829003018186803b1580156105ef57600080fd5b505afa158015610603573d6000803e3d6000fd5b505050506040513d602081101561061957600080fd5b50519050600061062f828463ffffffff610f2216565b604080518281526001600160a01b03888116602083015282519394503393908816927f4c6ab40ee4cfa212a441d32ee2897945b4a52461284f9369e23fdf8faa6cdd69928290030190a350505050505050565b6001600160a01b0381166106c75760405162461bcd60e51b81526004018080602001828103825260298152602001806112786029913960400191505060405180910390fd5b81341461071b576040805162461bcd60e51b815260206004820152601f60248201527f4272696467654d616e616765722f7a65726f20746f6b656e206c6f636b656400604482015290519081900360640190fd5b604080518381526001600160a01b03831660208201528151339273eeeeeeeeeeeeeeeeeeeeeeeeeeeeeeeeeeeeeeee927f4c6ab40ee4cfa212a441d32ee2897945b4a52461284f9369e23fdf8faa6cdd69929081900390910190a35050565b6002546001600160a01b031633146107d9576040805162461bcd60e51b815260206004820152601c60248201527f4272696467654d616e616765722f6e6f742d617574686f72697a656400000000604482015290519081900360640190fd5b60008181526020819052604090205460ff16156108275760405162461bcd60e51b815260040180806020018281038252602d8152602001806112cb602d913960400191505060405180910390fd5b600081815260208190526040808220805460ff19166001179055516001600160a01b0384169185156108fc02918691818181858888f19350505050158015610873573d6000803e3d6000fd5b506040805173eeeeeeeeeeeeeeeeeeeeeeeeeeeeeeeeeeeeeeee8152602081018590526001600160a01b038416818301526060810183905290517fb24e65d2501e29a3ce014b0cc2283699c081ad27f10d64f036f96912b6f8943e9181900360800190a1505050565b6001602052600090815260409020546001600160a01b031681565b6002546001600160a01b031681565b73eeeeeeeeeeeeeeeeeeeeeeeeeeeeeeeeeeeeeeee81565b604080516309dd78f360e11b81526001600160a01b0383811660048301526000602483018190529251908516926313baf1e6926044808201939182900301818387803b15801561096d57600080fd5b505af1158015610981573d6000803e3d6000fd5b505050505050565b6040805163079cc67960e41b81523360048201526024810184905290516001600160a01b038516916379cc679091604480830192600092919082900301818387803b1580156109d757600080fd5b505af11580156109eb573d6000803e3d6000fd5b5050604080518581526001600160a01b038581166020830152825133955090881693507f47b4128ad231bee46bdb1f8614450b5ffe6eb96340e87519a0c3a8b91ee714ec929181900390910190a3505050565b60006020819052908152604090205460ff1681565b6000856001600160a01b0316638e404e9c868686866040518563ffffffff1660e01b815260040180856001600160a01b03166001600160a01b0316815260200180602001806020018460ff1660ff168152602001838103835286818151815260200191508051906020019080838360005b83811015610adc578181015183820152602001610ac4565b50505050905090810190601f168015610b095780820380516001836020036101000a031916815260200191505b50838103825285518152855160209182019187019080838360005b83811015610b3c578181015183820152602001610b24565b50505050905090810190601f168015610b695780820380516001836020036101000a031916815260200191505b509650505050505050602060405180830381600087803b158015610b8c57600080fd5b505af1158015610ba0573d6000803e3d6000fd5b505050506040513d6020811015610bb657600080fd5b50516001600160a01b03958616600090815260016020526040902080546001600160a01b03191696909116959095179094555050505050565b6002546001600160a01b03163314610c4e576040805162461bcd60e51b815260206004820152601c60248201527f4272696467654d616e616765722f6e6f742d617574686f72697a656400000000604482015290519081900360640190fd5b60008181526020819052604090205460ff1615610c9c5760405162461bcd60e51b815260040180806020018281038252602a8152602001806112a1602a913960400191505060405180910390fd5b600081815260208181526040808320805460ff1916600117905580516340c10f1960e01b81526001600160a01b038681166004830152602482018890529151918816936340c10f199360448084019491939192918390030190829087803b158015610d0657600080fd5b505af1158015610d1a573d6000803e3d6000fd5b505050506040513d6020811015610d3057600080fd5b5050604080516001600160a01b038087168252602082018690528416818301526060810183905290517ffdc0a3af821280dd73e4f6683e16c5afc31a629d07af623f9a4689d6855938869181900360800190a150505050565b6002546001600160a01b03163314610de8576040805162461bcd60e51b815260206004820152601c60248201527f4272696467654d616e616765722f6e6f742d617574686f72697a656400000000604482015290519081900360640190fd5b60008181526020819052604090205460ff1615610e365760405162461bcd60e51b815260040180806020018281038252602a81526020018061124e602a913960400191505060405180910390fd5b6000818152602081905260409020805460ff1916600117905583610e6a6001600160a01b038216848663ffffffff610f6b16565b604080516001600160a01b038088168252602082018790528516818301526060810184905290517fb24e65d2501e29a3ce014b0cc2283699c081ad27f10d64f036f96912b6f8943e9181900360800190a15050505050565b604080516001600160a01b0385811660248301528416604482015260648082018490528251808303909101815260849091019091526020810180516001600160e01b03166323b872dd60e01b179052610f1c908590610fc2565b50505050565b6000610f6483836040518060400160405280601e81526020017f536166654d6174683a207375627472616374696f6e206f766572666c6f77000081525061117a565b9392505050565b604080516001600160a01b038416602482015260448082018490528251808303909101815260649091019091526020810180516001600160e01b031663a9059cbb60e01b179052610fbd908490610fc2565b505050565b610fd4826001600160a01b0316611211565b611025576040805162461bcd60e51b815260206004820152601f60248201527f5361666545524332303a2063616c6c20746f206e6f6e2d636f6e747261637400604482015290519081900360640190fd5b60006060836001600160a01b0316836040518082805190602001908083835b602083106110635780518252601f199092019160209182019101611044565b6001836020036101000a0380198251168184511680821785525050505050509050019150506000604051808303816000865af19150503d80600081146110c5576040519150601f19603f3d011682016040523d82523d6000602084013e6110ca565b606091505b509150915081611121576040805162461bcd60e51b815260206004820181905260248201527f5361666545524332303a206c6f772d6c6576656c2063616c6c206661696c6564604482015290519081900360640190fd5b805115610f1c5780806020019051602081101561113d57600080fd5b5051610f1c5760405162461bcd60e51b815260040180806020018281038252602a8152602001806112f8602a913960400191505060405180910390fd5b600081848411156112095760405162461bcd60e51b81526004018080602001828103825283818151815260200191508051906020019080838360005b838110156111ce5781810151838201526020016111b6565b50505050905090810190601f1680156111fb5780820380516001836020036101000a031916815260200191505b509250505060405180910390fd5b505050900390565b6000813f7fc5d2460186f7233c927e7db2dcc703c0e500b653ca82273b7bfad8045d85a47081811480159061124557508115155b94935050505056fe4574684d616e616765722f546865206275726e206576656e742063616e6e6f74206265207265757365644272696467654d616e616765722f726563697069656e742069732061207a65726f2061646472657373486d794d616e616765722f546865206c6f636b206576656e742063616e6e6f74206265207265757365644272696467654d616e616765722f546865206275726e206576656e742063616e6e6f74206265207265757365645361666545524332303a204552433230206f7065726174696f6e20646964206e6f742073756363656564a265627a7a72315820684352773805ee004f2361d1412a14ceb1d4749866af9ac931e09eea49a62bcf64736f6c63430005110032",
  "source": "pragma solidity 0.5.17;\nimport \"@openzeppelin/contracts/math/SafeMath.sol\";\nimport \"@openzeppelin/contracts/token/ERC20/IERC20.sol\";\nimport \"@openzeppelin/contracts/token/ERC20/SafeERC20.sol\";\nimport \"../lib/TokenManager.sol\";\n\ninterface MintableToken {\n    function mint(address beneficiary, uint256 amount) external returns (bool);\n}\n\ninterface BurnableToken {\n    function burnFrom(address account, uint256 amount) external;\n}\n\ncontract BridgeManager {\n    using SafeMath for uint256;\n    using SafeERC20 for IERC20;\n\n    IERC20 public constant ZERO_ADDRESS = IERC20(0x00eeeeeeeeeeeeeeeeeeeeeeeeeeeeeeeeeeeeeeee);\n\n    mapping(bytes32 => bool) public usedEvents_;\n    mapping(address => address) public mappings;\n    \n    event Locked(\n        address indexed tokenAddr,\n        address indexed sender,\n        uint256 amount,\n        address recipient\n    );\n\n    event Unlocked(\n        address tokenAddr,\n        uint256 amount,\n        address recipient,\n        bytes32 receiptId\n    );\n\n    event Burned(\n        address indexed token,\n        address indexed sender,\n        uint256 amount,\n        address recipient\n    );\n\n    event Minted(\n        address oneToken,\n        uint256 amount,\n        address recipient,\n        bytes32 receiptId\n    );\n\n    address public wallet;\n    modifier onlyWallet {\n        require(msg.sender == wallet, \"BridgeManager/not-authorized\");\n        _;\n    }\n\n    /**\n     * @dev constructor\n     * @param _wallet is the multisig wallet\n     */\n    constructor(address _wallet) public {\n        wallet = _wallet;\n    }\n\n    /**\n     * @dev map an source token to destination\n     * @param tokenManager address to token manager\n     * @param tokenAddr ethereum token address to map\n     * @param name of the ethereum token\n     * @param symbol of the ethereum token\n     * @param decimals of the ethereum token\n     */\n    function addToken(\n        address tokenManager,\n        address tokenAddr,\n        string memory name,\n        string memory symbol,\n        uint8 decimals\n    ) public {\n        address oneTokenAddr = TokenManager(tokenManager).addToken(\n            tokenAddr,\n            name,\n            symbol,\n            decimals\n        );\n        mappings[tokenAddr] = oneTokenAddr;\n    }\n\n    /**\n     * @dev deregister token mapping in the token manager\n     * @param tokenManager address to token manager\n     * @param tokenAddr address to remove token\n     */\n    function removeToken(address tokenManager, address tokenAddr) public {\n        TokenManager(tokenManager).removeToken(tokenAddr, 0);\n    }\n\n    /**\n     * @dev lock tokens to be minted on other chain\n     * @param tokenAddr is the ethereum token contract address\n     * @param amount amount of tokens to lock\n     * @param recipient recipient address on the other chain\n     */\n    function lockToken(\n        address tokenAddr,\n        uint256 amount,\n        address recipient\n    ) public {\n        require(\n            recipient != address(0),\n            \"BridgeManager/recipient is a zero address\"\n        );\n        require(amount > 0, \"BridgeManager/zero token locked\");\n        IERC20 ethToken = IERC20(tokenAddr);\n        uint256 _balanceBefore = ethToken.balanceOf(address(this));\n        ethToken.safeTransferFrom(msg.sender, address(this), amount);\n        uint256 _balanceAfter = ethToken.balanceOf(address(this));\n        uint256 _actualAmount = _balanceAfter.sub(_balanceBefore);\n        emit Locked(address(ethToken), msg.sender, _actualAmount, recipient);\n    }\n\n    /**\n     * @dev unlock tokens after burning them on other chain\n     * @param tokenAddr is the ethereum token contract address\n     * @param amount amount of unlock tokens\n     * @param recipient recipient of the unlock tokens\n     * @param receiptId transaction hash of the burn event on other chain\n     */\n    function unlockToken(\n        address tokenAddr,\n        uint256 amount,\n        address recipient,\n        bytes32 receiptId\n    ) public onlyWallet {\n        require(\n            !usedEvents_[receiptId],\n            \"EthManager/The burn event cannot be reused\"\n        );\n        IERC20 ethToken = IERC20(tokenAddr);\n        usedEvents_[receiptId] = true;\n        ethToken.safeTransfer(recipient, amount);\n        emit Unlocked(tokenAddr, amount, recipient, receiptId);\n    }\n\n    /**\n     * @dev burns tokens on harmony to be unlocked on ethereum\n     * @param tokenAddr harmony token address\n     * @param amount amount of tokens to burn\n     * @param recipient recipient of the unlock tokens on ethereum\n     */\n    function burnToken(\n        address tokenAddr,\n        uint256 amount,\n        address recipient\n    ) public {\n        BurnableToken(tokenAddr).burnFrom(msg.sender, amount);\n        emit Burned(tokenAddr, msg.sender, amount, recipient);\n    }\n\n    /**\n     * @dev mints tokens corresponding to the tokens locked in the ethereum chain\n     * @param tokenAddr is the token address for minting\n     * @param amount amount of tokens for minting\n     * @param recipient recipient of the minted tokens (harmony address)\n     * @param receiptId transaction hash of the lock event on ethereum chain\n     */\n    function mintToken(\n        address tokenAddr,\n        uint256 amount,\n        address recipient,\n        bytes32 receiptId\n    ) public onlyWallet {\n        require(\n            !usedEvents_[receiptId],\n            \"HmyManager/The lock event cannot be reused\"\n        );\n        usedEvents_[receiptId] = true;\n        MintableToken(tokenAddr).mint(recipient, amount);\n        emit Minted(tokenAddr, amount, recipient, receiptId);\n    }\n\n    /**\n     * @dev lock native tokens to be minted on other chain\n     * @param amount amount of tokens to lock\n     * @param recipient recipient address on the other chain\n     */\n    function lockNative(\n        uint256 amount,\n        address recipient\n    ) public payable {\n        require(\n            recipient != address(0),\n            \"BridgeManager/recipient is a zero address\"\n        );\n        require(msg.value == amount, \"BridgeManager/zero token locked\");\n        emit Locked(address(ZERO_ADDRESS), msg.sender, amount, recipient);\n    }\n\n    /**\n     * @dev unlock native tokens after burning them on other chain\n     * @param amount amount of unlock tokens\n     * @param recipient recipient of the unlock tokens\n     * @param receiptId transaction hash of the burn event on other chain\n     */\n    function unlockNative(\n        uint256 amount,\n        address payable recipient,\n        bytes32 receiptId\n    ) public onlyWallet {\n        require(\n            !usedEvents_[receiptId],\n            \"BridgeManager/The burn event cannot be reused\"\n        );\n        usedEvents_[receiptId] = true;\n        recipient.transfer(amount);\n        emit Unlocked(address(ZERO_ADDRESS), amount, recipient, receiptId);\n    }\n}\n",
  "sourcePath": "/Users/borispolania/Documents/Harmony/truffle/ethhmy-bridge/contracts/bep20/BridgeManager.sol",
  "compiler": {
    "name": "solc",
    "version": "0.5.17+commit.d19bba13.Emscripten.clang"
  },
  "schemaVersion": "3.4.3",
  "updatedAt": "2021-08-19T23:22:57.832Z",
  "devdoc": {
    "methods": {
      "addToken(address,address,string,string,uint8)": {
        "details": "map an source token to destination",
        "params": {
          "decimals": "of the ethereum token",
          "name": "of the ethereum token",
          "symbol": "of the ethereum token",
          "tokenAddr": "ethereum token address to map",
          "tokenManager": "address to token manager"
        }
      },
      "burnToken(address,uint256,address)": {
        "details": "burns tokens on harmony to be unlocked on ethereum",
        "params": {
          "amount": "amount of tokens to burn",
          "recipient": "recipient of the unlock tokens on ethereum",
          "tokenAddr": "harmony token address"
        }
      },
      "constructor": {
        "details": "constructor",
        "params": {
          "_wallet": "is the multisig wallet"
        }
      },
      "lockNative(uint256,address)": {
        "details": "lock native tokens to be minted on other chain",
        "params": {
          "amount": "amount of tokens to lock",
          "recipient": "recipient address on the other chain"
        }
      },
      "lockToken(address,uint256,address)": {
        "details": "lock tokens to be minted on other chain",
        "params": {
          "amount": "amount of tokens to lock",
          "recipient": "recipient address on the other chain",
          "tokenAddr": "is the ethereum token contract address"
        }
      },
      "mintToken(address,uint256,address,bytes32)": {
        "details": "mints tokens corresponding to the tokens locked in the ethereum chain",
        "params": {
          "amount": "amount of tokens for minting",
          "receiptId": "transaction hash of the lock event on ethereum chain",
          "recipient": "recipient of the minted tokens (harmony address)",
          "tokenAddr": "is the token address for minting"
        }
      },
      "removeToken(address,address)": {
        "details": "deregister token mapping in the token manager",
        "params": {
          "tokenAddr": "address to remove token",
          "tokenManager": "address to token manager"
        }
      },
      "unlockNative(uint256,address,bytes32)": {
        "details": "unlock native tokens after burning them on other chain",
        "params": {
          "amount": "amount of unlock tokens",
          "receiptId": "transaction hash of the burn event on other chain",
          "recipient": "recipient of the unlock tokens"
        }
      },
      "unlockToken(address,uint256,address,bytes32)": {
        "details": "unlock tokens after burning them on other chain",
        "params": {
          "amount": "amount of unlock tokens",
          "receiptId": "transaction hash of the burn event on other chain",
          "recipient": "recipient of the unlock tokens",
          "tokenAddr": "is the ethereum token contract address"
        }
      }
    }
  },
  "userdoc": {
    "methods": {}
  }
}